{
  "_format": "hh-sol-artifact-1",
  "contractName": "StakingVault",
  "sourceName": "contracts/StakingVault.sol",
  "abi": [
    {
      "inputs": [
        {
          "internalType": "address",
          "name": "initialOwner",
          "type": "address"
        },
        {
          "internalType": "uint256",
          "name": "_rewardRatePerSecond",
          "type": "uint256"
        },
        {
          "internalType": "uint256",
          "name": "_lockDuration",
          "type": "uint256"
        }
      ],
      "stateMutability": "nonpayable",
      "type": "constructor"
    },
    {
      "inputs": [
        {
          "internalType": "address",
          "name": "owner",
          "type": "address"
        }
      ],
      "name": "OwnableInvalidOwner",
      "type": "error"
    },
    {
      "inputs": [
        {
          "internalType": "address",
          "name": "account",
          "type": "address"
        }
      ],
      "name": "OwnableUnauthorizedAccount",
      "type": "error"
    },
    {
      "inputs": [],
      "name": "ReentrancyGuardReentrantCall",
      "type": "error"
    },
    {
      "anonymous": false,
      "inputs": [
        {
          "indexed": true,
          "internalType": "address",
          "name": "previousOwner",
          "type": "address"
        },
        {
          "indexed": true,
          "internalType": "address",
          "name": "newOwner",
          "type": "address"
        }
      ],
      "name": "OwnershipTransferred",
      "type": "event"
    },
    {
      "anonymous": false,
      "inputs": [
        {
          "indexed": true,
          "internalType": "address",
          "name": "user",
          "type": "address"
        },
        {
          "indexed": false,
          "internalType": "uint256",
          "name": "amount",
          "type": "uint256"
        }
      ],
      "name": "Staked",
      "type": "event"
    },
    {
      "anonymous": false,
      "inputs": [
        {
          "indexed": true,
          "internalType": "address",
          "name": "user",
          "type": "address"
        },
        {
          "indexed": false,
          "internalType": "uint256",
          "name": "principal",
          "type": "uint256"
        },
        {
          "indexed": false,
          "internalType": "uint256",
          "name": "rewards",
          "type": "uint256"
        }
      ],
      "name": "Unstaked",
      "type": "event"
    },
    {
      "inputs": [
        {
          "internalType": "address",
          "name": "_user",
          "type": "address"
        }
      ],
      "name": "calculateRewards",
      "outputs": [
        {
          "internalType": "uint256",
          "name": "",
          "type": "uint256"
        }
      ],
      "stateMutability": "view",
      "type": "function"
    },
    {
      "inputs": [],
      "name": "lockDuration",
      "outputs": [
        {
          "internalType": "uint256",
          "name": "",
          "type": "uint256"
        }
      ],
      "stateMutability": "view",
      "type": "function"
    },
    {
      "inputs": [],
      "name": "owner",
      "outputs": [
        {
          "internalType": "address",
          "name": "",
          "type": "address"
        }
      ],
      "stateMutability": "view",
      "type": "function"
    },
    {
      "inputs": [],
      "name": "renounceOwnership",
      "outputs": [],
      "stateMutability": "nonpayable",
      "type": "function"
    },
    {
      "inputs": [],
      "name": "rewardRatePerSecond",
      "outputs": [
        {
          "internalType": "uint256",
          "name": "",
          "type": "uint256"
        }
      ],
      "stateMutability": "view",
      "type": "function"
    },
    {
      "inputs": [
        {
          "internalType": "uint256",
          "name": "_newDurationInSeconds",
          "type": "uint256"
        }
      ],
      "name": "setLockDuration",
      "outputs": [],
      "stateMutability": "nonpayable",
      "type": "function"
    },
    {
      "inputs": [
        {
          "internalType": "uint256",
          "name": "_newRatePerSecond",
          "type": "uint256"
        }
      ],
      "name": "setRewardRate",
      "outputs": [],
      "stateMutability": "nonpayable",
      "type": "function"
    },
    {
      "inputs": [],
      "name": "stake",
      "outputs": [],
      "stateMutability": "payable",
      "type": "function"
    },
    {
      "inputs": [],
      "name": "totalStaked",
      "outputs": [
        {
          "internalType": "uint256",
          "name": "",
          "type": "uint256"
        }
      ],
      "stateMutability": "view",
      "type": "function"
    },
    {
      "inputs": [
        {
          "internalType": "address",
          "name": "newOwner",
          "type": "address"
        }
      ],
      "name": "transferOwnership",
      "outputs": [],
      "stateMutability": "nonpayable",
      "type": "function"
    },
    {
      "inputs": [],
      "name": "unstake",
      "outputs": [],
      "stateMutability": "nonpayable",
      "type": "function"
    },
    {
      "inputs": [
        {
          "internalType": "address",
          "name": "",
          "type": "address"
        }
      ],
      "name": "userStakes",
      "outputs": [
        {
          "internalType": "uint256",
          "name": "amount",
          "type": "uint256"
        },
        {
          "internalType": "uint256",
          "name": "startTime",
          "type": "uint256"
        },
        {
          "internalType": "uint256",
          "name": "rewardsPaid",
          "type": "uint256"
        }
      ],
      "stateMutability": "view",
      "type": "function"
    },
    {
      "inputs": [],
      "name": "withdrawExcessFunds",
      "outputs": [],
      "stateMutability": "nonpayable",
      "type": "function"
    },
    {
      "stateMutability": "payable",
      "type": "receive"
    }
  ],
  "bytecode": "0x608060405234801561000f575f80fd5b50604051610a4f380380610a4f83398101604081905261002e916100c8565b826001600160a01b03811661005c57604051631e4fbdf760e01b81525f600482015260240160405180910390fd5b61006581610079565b506001805560029190915560035550610107565b5f80546001600160a01b038381166001600160a01b0319831681178455604051919092169283917f8be0079c531659141344cd1fd0a4f28419497f9722a3daafe3b4186f6b6457e09190a35050565b5f805f606084860312156100da575f80fd5b83516001600160a01b03811681146100f0575f80fd5b602085015160409095015190969495509392505050565b61093b806101145f395ff3fe6080604052600436106100c2575f3560e01c8063715018a61161007c5780638da7ad23116100575780638da7ad23146101b55780639e447fc61461020a578063f2fde38b14610229578063fcb67c5b14610248575f80fd5b8063715018a614610166578063817b1cd21461017a5780638da5cb5b1461018f575f80fd5b806304554443146100cd5780632def6620146100f55780633a4b66f11461010b5780634eb665af146101135780635d773b2c1461013257806364ab867514610147575f80fd5b366100c957005b5f80fd5b3480156100d8575f80fd5b506100e260035481565b6040519081526020015b60405180910390f35b348015610100575f80fd5b5061010961025c565b005b6101096104ca565b34801561011e575f80fd5b5061010961012d36600461084b565b6105ee565b34801561013d575f80fd5b506100e260025481565b348015610152575f80fd5b506100e2610161366004610862565b6105fb565b348015610171575f80fd5b50610109610694565b348015610185575f80fd5b506100e260045481565b34801561019a575f80fd5b505f546040516001600160a01b0390911681526020016100ec565b3480156101c0575f80fd5b506101ef6101cf366004610862565b60056020525f908152604090208054600182015460029092015490919083565b604080519384526020840192909252908201526060016100ec565b348015610215575f80fd5b5061010961022436600461084b565b6106a5565b348015610234575f80fd5b50610109610243366004610862565b6106b2565b348015610253575f80fd5b506101096106ef565b6102646107a6565b335f90815260056020526040902080546102c55760405162461bcd60e51b815260206004820152601860248201527f596f752068617665206e6f20616374697665207374616b65000000000000000060448201526064015b60405180910390fd5b60035481600101546102d791906108a3565b42101561031e5760405162461bcd60e51b815260206004820152601560248201527414dd185ad9481a5cc81cdd1a5b1b081b1bd8dad959605a1b60448201526064016102bc565b5f610328336105fb565b90505f81836002015461033b91906108a3565b90505f81845f015461034d91906108a3565b9050804710156103b45760405162461bcd60e51b815260206004820152602c60248201527f496e73756666696369656e7420636f6e74726163742062616c616e636520666f60448201526b1c881dda5d1a191c985dd85b60a21b60648201526084016102bc565b8354600480545f906103c79084906108bc565b9091555050335f81815260056020526040808220828155600181018390556002018290555190919083908381818185875af1925050503d805f8114610427576040519150601f19603f3d011682016040523d82523d5f602084013e61042c565b606091505b505090508061047d5760405162461bcd60e51b815260206004820152601a60248201527f4661696c656420746f2073656e642045544820746f207573657200000000000060448201526064016102bc565b8454604080519182526020820185905233917f7fc4727e062e336010f2c282598ef5f14facb3de68cf8195c2f23e1454b2b74e910160405180910390a250505050506104c860018055565b565b6104d26107a6565b5f34116105165760405162461bcd60e51b8152602060048201526012602482015271086c2dcdcdee840e6e8c2d6ca4060408aa8960731b60448201526064016102bc565b335f9081526005602052604090205415610561575f610534336105fb565b335f9081526005602052604081206002018054929350839290919061055a9084906108a3565b9091555050505b335f908152600560205260408120805434929061057f9084906108a3565b9091555050335f90815260056020526040812042600190910155600480543492906105ab9084906108a3565b909155505060405134815233907f9e71bc8eea02a63969f509818f2dafb9254532904319f9dbda79b67bd34a5f3d9060200160405180910390a26104c860018055565b6105f66107d0565b600355565b6001600160a01b0381165f908152600560209081526040808320815160608101835281548082526001830154948201949094526002909101549181019190915290820361064a57505f92915050565b5f81602001514261065b91906108bc565b9050670de0b6b3a764000081600254845f015161067891906108cf565b61068291906108cf565b61068c91906108e6565b949350505050565b61069c6107d0565b6104c85f6107fc565b6106ad6107d0565b600255565b6106ba6107d0565b6001600160a01b0381166106e357604051631e4fbdf760e01b81525f60048201526024016102bc565b6106ec816107fc565b50565b6106f76107d0565b5f6004544761070691906108bc565b905080156106ec575f80546040516001600160a01b039091169083908381818185875af1925050503d805f8114610758576040519150601f19603f3d011682016040523d82523d5f602084013e61075d565b606091505b50509050806107a25760405162461bcd60e51b815260206004820152601160248201527015da5d1a191c985dd85b0819985a5b1959607a1b60448201526064016102bc565b5050565b6002600154036107c957604051633ee5aeb560e01b815260040160405180910390fd5b6002600155565b5f546001600160a01b031633146104c85760405163118cdaa760e01b81523360048201526024016102bc565b5f80546001600160a01b038381166001600160a01b0319831681178455604051919092169283917f8be0079c531659141344cd1fd0a4f28419497f9722a3daafe3b4186f6b6457e09190a35050565b5f6020828403121561085b575f80fd5b5035919050565b5f60208284031215610872575f80fd5b81356001600160a01b0381168114610888575f80fd5b9392505050565b634e487b7160e01b5f52601160045260245ffd5b808201808211156108b6576108b661088f565b92915050565b818103818111156108b6576108b661088f565b80820281158282048414176108b6576108b661088f565b5f8261090057634e487b7160e01b5f52601260045260245ffd5b50049056fea26469706673582212208994b707a56dba67cad7ec6f874738e0d84a82de088878661d16d028dea8d69964736f6c63430008180033",
  "linkReferences": {},
  "deployedLinkReferences": {}
}